:100000000C940D020C942A020C942A020C942A02DD
:100010000C942A020C942A020C942A020C942A02B0
:100020000C942A020C942A020C941C100C94D80FE5
:100030000C94AF1E0C942A020C942A020C942A02EF
:100040000C942A020C942A020C942A020C942A0280
:100050000C942A020C942B0C0C942A020C942A0265
:100060000C942A020C942A020C942A020C942A0260
:100070000C942A020C942A020C942A020C942A0250
:100080000C942A020C942A020C942A020C942A0240
:100090000C942A020C942A020C942A020C942A0230
:1000A0000C942A020C942A020C942A0229002B0098
:1000B000E000E100025300001E00140004001D00D7
:1000C00046004D001F001A0016001B0034002A00D5
:1000D0002000080007000600E2002C0021001500A7
:1000E00009001900E3004A00220017000A00050079
:1000F00000005000015335000000E20200004F00F4
:1001000029002F00000030000000510023001C00D7
:100110000B00110000005200240018000D00100018
:1001200028004B0025000C000E003600E600010000
:10013000260012000F0037002F004C00270013008C
:100140003300380030004E002D0031002E00E50055
:100150000151000029000100010001000100000020
:100160003A001E0220022202010001003B001F0291
:1001700021022302010001003C002F0226022F0071
:10018000500001003D003002270230004F00010006
:100190003E0031023500350200000100010001007F
:1001A000000001000000010001000100000001004A
:1001B000000001003F005200510024020000010035
:1001C0004000240021001E005200010041002500D3
:1001D00022001F00510001004200260023002000E1
:1001E00027000100430025022E0231002E000100ED
:1001F0004400450001000100010000000100010071
:1002000001000100010000000100010001000100E7
:100210000100010001000100F200010001000100E5
:100220000100F000F1000100F400010001000100F4
:10023000F3000100F50001000100010001000100D0
:1002400000000100010001000000010000000100A9
:100250000100010000000100000001000100010098
:100260000100010000000100010001000100010087
:10027000A9000100010001000100AC00AA00B600C5
:10028000010001000100AB00A80001000100010015
:10029000010001000100010001000100AE000100A9
:1002A0000100000005010902A10185020901A10068
:1002B000050919012905150025019505750181021A
:1002C0009501750381010501093009311581257FEB
:1002D00095027508810609381581257F95017508F5
:1002E0008106050C0A38021581257F950175088164
:1002F00006C0C005010980A101850319012AB700C4
:10030000150126B700950175108100C0050C090183
:10031000A101850419012AA002150126A002950158
:1003200075108100C005010906A1018505050719A1
:10033000E029E715002501950875018102050719D7
:100340000029EF1500250195F075018102050819B6
:10035000012905950575019102950175039101C06B
:1003600005010906A101050719E029E71500250186
:10037000950875018102950175088101050719002D
:1003800029FF150026FF009506750881000508194C
:10039000012905950575019102950175039101C02B
:1003A00009023B00020100A0FA0904000001030158
:1003B0000100092111010001224000070581030805
:1003C000000A0904010001030000000921110100D5
:1003D0000122BC000705820320000A12011001005F
:1003E000000008EDFE0713010001020301040330C1
:1003F00000000016034500720067006F0064006F84
:10040000007800200045005A00000008035A0053FD
:100410000041000000040309040011241FBECFEFB7
:10042000DAE0DEBFCDBF11E0A0E0B1E0E8ECF2E43D
:1004300002C005900D92AC3EB107D9F723E0ACEEB7
:10044000B1E001C01D92A932B207E1F70E940A1C77
:100450000C9430210C940000E8EDF0E080818E7F58
:1004600080831092E2001092DA001092E100A0EE78
:10047000B0E08C9181608C9380818F77808319BCF0
:10048000A7EDB0E08C918E7F8C9380818F7E8083EE
:100490001092F60208952091E4003091E50095E66F
:1004A000A9012091EC00822F817020FF06C080916D
:1004B000E80080FF06C080E008952091E80022FD5A
:1004C0001AC080911B03882389F0853089F08091C0
:1004D000EB0085FD0FC02091E4003091E50042174C
:1004E0005307F9F29150E1F684E0089582E008950F
:1004F00083E0089581E00895EF92FF920F931F9398
:10050000CF937C018B010E944B02C82F811117C031
:100510008091E80085FD0BC08091E8008E77809384
:10052000E8000E944B02882399F3C82F08C0F70106
:1005300081917F018093F1000150110949F78C2FBF
:10054000CF911F910F91FF90EF90089580911D031F
:1005500087FF13C08091E80082FF06C08091E80009
:100560008B778093E80004C080911B038111F2CF48
:10057000089580911B038823D9F38091E80080FFC0
:10058000F8CF8091E8008E77ECCF982F9093E90018
:10059000242F762F50E0891731F07091EC002091D4
:1005A000ED005091F00021FD07C09F5F973071F77B
:1005B0008093E90081E008953091EB003E7F309315
:1005C000EB003091ED003D7F3093ED003091EB007A
:1005D00031603093EB007093EC002093ED0050936A
:1005E000F0002091EE0027FDE0CF80E00895CF924B
:1005F000DF92EF92FF920F931F93CF93DF93C8ED9B
:10060000D0E088818F7E8883E7EDF0E08081816093
:10061000808384E082BF81E08093F60288818E7FB0
:10062000888302EE10E0F80110821092DA0081EE69
:10063000C82ED12CF601108288818F77888388811B
:100640008068888388818F7D888319BC10921B0302
:1006500010921C0310921A031092190390EEE92EC7
:10066000F12CF70180818B7F808388818160888372
:1006700042E060E080E00E94C502F60180818E7F4A
:100680008083F8018081816080838081886080839D
:10069000F70180818E7F8083888180618883DF91EC
:1006A000CF911F910F91FF90EF90DF90CF90089521
:1006B000FC01809123039091240386179707A0F0F3
:1006C0006115710529F49091E8009E779093E800F8
:1006D00090E06115710551F4911108C08091E80016
:1006E00082FF34C080E00895BC01F2CF80911B03EB
:1006F0008823C1F18530C1F18091E80083FD30C0CD
:100700008091E80082FDEACF8091E80080FFE1CF90
:100710008091F3002091F200382F6115710519F0D6
:100720002830310558F091E02830310509F090E08B
:100730002091E8002E772093E800CBCF8191809321
:10074000F100615071092F5F3F4FE7CF80911B038C
:10075000882341F0853041F08091E80083FFBECFCF
:1007600081E0089582E0089583E0089580911B035D
:10077000843011F482E0089581E008958091F802B8
:1007800008959091E202803F41F48091E30287FD59
:100790001092E302992371F00895813F29F480912A
:1007A000E3021816ACF3F6CF823F81F497FFF2CF45
:1007B0001092E2028091E3029091E402892B9091E1
:1007C000E502892B49F71092DD020895833F19F461
:1007D000191674F3DFCF893F39F48091E4021816BB
:1007E000CCF61092E402D6CF8A3F29F48091E4023D
:1007F00087FFD0CFF6CF8B3F39F48091E50287FF9A
:10080000C9CF1092E502C6CF8C3F29F48091E50252
:100810001816BCF3BFCF843F31F48091E1028E7F84
:100820008093E102B7CF853F21F48091E1028D7F73
:10083000F7CF863F21F48091E1028B7FF1CF873F94
:1008400021F48091E102877FEBCF883F21F48091F2
:10085000E1028F7EE5CF8D3F31F48091AD028E7F36
:100860008093AD0297CF8E3F21F48091AD028D7FB2
:10087000F7CF8F3F09F08ECF8091AD028B7FF0CF05
:100880008091AD0280FD1AC081FD14C082FD14C0AC
:100890008091DD02882391F08C3370F427E0829FF1
:1008A000C00111246CE370E00E94A31F862F672B08
:1008B00029F0089583E0089587E0089581E0089580
:1008C0008091AD0280FD16C081FD16C082FD18C06A
:1008D0008091DD02882391F08C3390F423E2829F93
:1008E000C00111246CE370E00E94A31F862F672BC8
:1008F00049F0089588E0089581E1089585E008951C
:1009000083E2089581E00895803F31F40E946004FD
:1009100081958093E3020895813F19F40E94600459
:10092000F8CF823F31F40E94600481958093E20207
:100930000895833F19F40E946004F8CF893F29F499
:100940000E9440048093E40208958A3F21F40E94AB
:1009500040048195F7CF8B3F31F40E94400481958C
:100960008093E50208958C3F19F40E944004F8CF6B
:10097000843F31F48091E10281608093E102089527
:10098000853F21F48091E1028260F7CF863F21F418
:100990008091E1028460F1CF873F21F48091E102F0
:1009A0008860EBCF883F21F48091E1028061E5CF40
:1009B0008D3F31F48091AD0281608093AD02089546
:1009C0008E3F21F48091AD028260F7CF8F3FB9F75F
:1009D0008091AD028460F1CF9C014FB7F894809173
:1009E000A9029091AA02A091AB02B091AC024FBFB4
:1009F000821B930B0895209112012223C9F02091AC
:100A0000C60227FF15C0E62FE695E695E695EE317E
:100A1000D8F4E80FF92FF11D677021E030E001C034
:100A2000220F6A95EAF72095828128232283089570
:100A3000FC01329608962191621303C0DF011197E1
:100A40001C92E817F907B9F70895209112012223A3
:100A5000C1F02091C60227FF14C0E62FE695E69567
:100A6000E695EE31F8F4E80FF92FF11D677021E0FB
:100A700030E001C0220F6A95EAF78281822B8283DF
:100A80000895FC0132962FEF30E04191641751F048
:100A90002F3F19F4411101C0232F3F5F3630A9F7D2
:100AA0002F3F09F40895820F911D27FD9A95FC01AF
:100AB000628308958091A40281111092A402089586
:100AC0008091A3029091A202892B9091A102892B7F
:100AD0008093EC019091A4029923A1F0892B80933B
:100AE000EC0180911201882341F18091C60287FFB9
:100AF00024C08EE1EEEEF1E090E0815000F591111E
:100B00000E945A05E091C802F091C9023097E1F0C5
:100B100080911201882359F08091C60287FF07C097
:100B20008091EC018093ED0185E08093EC010280DF
:100B3000F381E02D8CEE91E0099486E0DBCF2191EA
:100B40002223D9F29F5FD9CF0895E92FEE0FE90F45
:100B5000EE0F8E0F982F977086958695869525E0D7
:100B6000829FF0011124EB59FD4F50E040E080E0FE
:100B7000219130E0092E02C0369527950A94E2F7BC
:100B800021703327042E01C0220F0A94EAF7822B2A
:100B90004F5F5F4F4530510559F70895E92FEE0F2C
:100BA000E90FEE0F8E0F982F977041E001C0440FB0
:100BB0009A95EAF786958695869595E0899FF00146
:100BC0001124EB59FD4F30E020E070E05191DF013E
:100BD0001197CB01022E02C0969587950A94E2F7F1
:100BE000817081958527842385278C932F5F3F4FC4
:100BF0002530310559F708958091640290913302B0
:100C0000981301C008958F5F8770FACF882341F051
:100C100080959091A20289238093A2020C94600592
:100C20000895882339F09091A202982B9093A20204
:100C30000C9460050895882341F080959091A3025B
:100C400089238093A3020C9460050895882339F0CA
:100C50009091A302982B9093A3020C9460050895A1
:100C600020911702309118022817390771F09093DC
:100C7000180280931702E091C802F091C9023097E0
:100C800021F00084F185E02D09940895209115024A
:100C9000309116022817390771F09093160280934D
:100CA0001502E091C802F091C902309721F0068048
:100CB000F781E02D09940895E091C802F091C902EE
:100CC000309721F00190F081E02D099480E00895A3
:100CD0009091C60292FF06C0282F28712830F9F49F
:100CE000877F846093FF06C0282F28712831F1F494
:100CF000877E84612091C70220FF06C0382F38719B
:100D00003830D9F4877F816021FF06C0282F2871F1
:100D10002831D1F4877E816194FD877E0895282F44
:100D200024712430F9F68B7F8860DCCF282F247162
:100D3000243101F78B7E8861DDCF382F317131305E
:100D400019F78E7F8860E0CF282F2171213121F79C
:100D50008E7E8861E1CFCF93DF93972F70E026E0FE
:100D6000929F600D711D1124FB0134E5839FE00DFE
:100D7000F11D1124EE0FFF1FE455FF4FC591D491D3
:100D8000CE01C238D105B9F1E8F5C133D10509F476
:100D900099C050F5C932D10509F48DC0CA32D105C8
:100DA00009F497C0C11542E5D40708F0C4C0C115C5
:100DB00021E5D20708F038C1C83ED10508F09DC032
:100DC000C03ED10568F5C83AD10508F089C0C53ADA
:100DD000D10508F005C1C130D10511F1209709F402
:100DE00043C02497E8F440C0C533D10509F45CC082
:100DF000C933D105B9F62091C602237089F080EE7F
:100E000090E00EC0C33ED10591F168F4C03ED1051B
:100E1000F9F0C23ED10531F62091C60222FD20C074
:100E2000DF91CF910895C63ED10561F1C73ED1054E
:100E300081F1C43ED10509F0B5CF2091C70221FF51
:100E4000EFCF8091C60284FD0FC087EE90E0E8CF1F
:100E50002091C60220FD19C13091C70230FFE0CFBA
:100E600083EE90E024FFDCCF90E080E0D9CF2091AA
:100E7000C60222FD0DC13091C70230FDC0CF24FF54
:100E8000CFCFF2CF2091C60223FFCACF24FDECCFF3
:100E9000DCCF2091C60223FDFEC03091C70231FF96
:100EA000EECF84EE90E0BCCF2091C60225FFB8CFF4
:100EB00089E290E0B5CF2091C60225FFB1CF85E34E
:100EC00090E0AECF2091C60226FFAACF8AE290E042
:100ED000A7CF2091C60226FFA3CF81E390E0A0CF49
:100EE000CF3BD10508F6C85AD0E0CC0FDD1FC25465
:100EF000DE4F88819981946493CFC11530E2D30786
:100F000060F4C11541E0D40708F08ACFCE019065A6
:100F1000C03FD10508F084CFA7CFC11580E4D80722
:100F200008F4A2CFC11590E5D90708F061C0CE0141
:100F30009F70906A75CFC11526E5D20718F5C115C7
:100F400035E5D30708F086C0C11544E5D40708F09D
:100F50007CC09C2F96959695AE0143705527C11580
:100F6000D34508F466C021E030E002C0220F331FF1
:100F70004A95E2F740E2949FC0011124822B932B03
:100F80009A684ECFC1159AE5D90778F4C11529E5BD
:100F9000D20708F069C0C11538E5D30708F464CF5B
:100FA0009C2F8827806F906A3BCFC1154BE5D407F3
:100FB00008F45ACFC1158CE5D80708F462C0CE01F9
:100FC00090568115904208F04FCF8D2F8F710E945F
:100FD000680690E0982F882788279F718C2B42C045
:100FE000C55AD0E0C554DE4F888190E0906418CF98
:100FF0009E01E4E036952795EA95E1F723708C2F62
:1010000086958695837030E2839FC0011124922BD0
:10101000C37021E030E002C0220F331FCA95E2F70F
:10102000822B932B9C68FCCE9C2F8827816F906A23
:10103000F7CE21E030E002C0220F331F4A95E2F7DD
:1010400040E2949FC0011124EBCF9C2F8827846F2E
:10105000906AE6CE8C2F0E94680690E0982F882731
:1010600088279F719062DCCE8C2F8F700E9468065B
:1010700034E0D695C7953A95E1F7CF709C2F9069EB
:10108000CFCECE0199279066CBCE89E390E0C8CE33
:1010900082EE90E0C5CE86EE90E0C2CEBF92CF92B7
:1010A000DF92EF92FF920F931F93CF93DF938C0108
:1010B000C0909C02D0909D02E0909E02F0909F0212
:1010C0008091A5029091A602A091A702B091A802DA
:1010D000C82AD92AEA2AFB2ACFE1D0E0BC2ED701C0
:1010E000C6010C2E04C0B695A795979587950A94CE
:1010F000D2F780FD0EC0219788F7B12C8B2DDF91A0
:10110000CF911F910F91FF90EF90DF90CF90BF9004
:101110000895B8018C2F0E94AB06019761F3EECFC2
:10112000CF93DF93EC010E944E08BE01DF91CF9177
:101130000C94AB060E949008292F2F7092959F70F7
:1011400092509E3078F4E92FF0E0EE5CFE4D0C9466
:10115000B71F803F19F020F4883E20F481E0089505
:10116000843FE1F380E00895883EC0F3813FD1F7EA
:10117000F5CF822F869586958695089527982F9886
:10118000089526982E98089525982D980895569894
:101190005E980895279A2F9A0895269A2E9A089570
:1011A000259A2D9A0895CF92DF92EF92FF92CF93D6
:1011B0006B017C01C701AA27BB27C0E10097A105ED
:1011C000B10519F4D701CB01C0E0492F5A2F6B2F7D
:1011D0007727411551056105710519F0C85FDB01DD
:1011E000CA01AC01BD01E4E0769567955795479536
:1011F000EA95D1F7411551056105710519F0CC5FEC
:10120000DB01CA01AC01BD0132E0769567955795C7
:1012100047953A95D1F7411551056105710519F0CA
:10122000CE5FDB01CA01B695A79597958795892B67
:101230008A2B8B2B09F0CF5F0E94C7080E94C4083D
:101240000E94C1080E94BE08C150C73040F4EC2F74
:10125000F0E0E05CFE4D0C94B71F0E94D008C7017F
:10126000B601CF91FF90EF90DF90CF9008950E944C
:10127000D0080E94CD08F3CF0E94D0080E94CA086F
:10128000EECF0E94D0080E94CD08F8CF84B1807FB5
:1012900084B985B1807F85B98AB1837F8AB98BB1E2
:1012A000837F8BB93E984698089580B38C7080BB3D
:1012B00081B3836F81BB0895CF9384E090E00E9457
:1012C000BD1FC82F81E290E00E94BD1F982F8C2F78
:1012D000CF910895CF93DF9300D00F92CDB7DEB7B3
:1012E00090911B03943019F589837B836A8382E094
:1012F0008093E9008FEF9091E800815095FD06C042
:1013000095ED9A95F1F700008111F5CF8091E800F5
:1013100085FF0DC050E040E063E070E0CE01019633
:101320000E947C028091E8008E778093E8000F9005
:101330000F900F90DF91CF910895CF93DF93EC0141
:101340000E94B603823011F0843031F4BE0184E093
:10135000DF91CF910C946A09DF91CF910895BC0180
:1013600083E00C946A09CF93DF93EC010E94B603EB
:10137000823011F08430F9F482E08093E9008FEF3D
:101380009091E800815095FD06C095ED9A95F1F792
:1013900000008111F5CF8091E80085FF0CC050E07E
:1013A00040E066E070E0CE010E947C028091E8009F
:1013B0008E778093E800DF91CF910895CF93DF93EC
:1013C000EC010E94B603823011F08430B9F58091AF
:1013D00012018823B1F18091C60287FF32C060E21A
:1013E00082E08093E9008FEF9091E800815095FDB5
:1013F00006C095ED9A95F1F700008111F5CF809127
:10140000E80085FF1BC08091120170E050E040E0D1
:10141000811104C050E040E068E070E0CE010E941D
:101420007C028091E8008E778093E80080E2FE01E4
:10143000A9EFB2E001900D928A95E1F7DF91CF918B
:10144000089568E081E0CDCFEF92FF920F931F9354
:10145000CF93DF930E94C7080E94C4080E94C1086E
:101460000E94BE0888E8E82EF12C8FEF90E0F7018B
:10147000918380830AE810E0F80191838083CCE8AF
:10148000D0E0998388830E94D008FFEF20E782E0B4
:10149000F15020408040E1F700C000000E94CD08DC
:1014A0009FEFE0E7F2E09150E040F040E1F700C04C
:1014B00000000E94CA082FEF80E792E02150804090
:1014C0009040E1F700C000000E94C408EFEFF0E791
:1014D00022E0E150F0402040E1F700C000000E940F
:1014E000C1088FEF90E7E2E081509040E040E1F7E3
:1014F00000C000000E94BE088091B4028770FFEF18
:101500008F9FC0011124959587959595879599276B
:10151000F70191838083F801918380839983888385
:101520000E94C7080E94C4080E94C108DF91CF91A1
:101530001F910F91FF90EF900C94BE086FEE7EEF1D
:1015400090E080E00E94EF1F60E082E090E00E9467
:10155000D11F60E083E090E00E94D11F1092A502AD
:101560001092A6021092A7021092A80260E084E0F6
:1015700090E00E94D11F60E081E290E00E94D11FC4
:1015800060E085E090E00E94D11F60E086E090E09E
:101590000E94D11F6FEF87E090E00E94D11F40E0D2
:1015A00050E0BA0188E090E00E94E31F60E08DE027
:1015B00090E00E94D11F40E050E0BA0188E190E045
:1015C0000E94E31F60E087E190E00E94D11F40E0AD
:1015D00050E0BA018CE190E00E94E31F60E080E2FD
:1015E00090E00E94D11F1092B4021092B5021092A6
:1015F000B6021092B70284E080618093B4024091F9
:10160000B4025091B5026091B6027091B7028FE0BA
:1016100090E00E94E31F40E050E0BA0183E190E0D7
:101620000C94E31FCF93C82F873070F5809106018B
:1016300090910701892B89F564E670E080E40E94AF
:10164000DC1E9093070180930601892BD1F464E698
:1016500070E082E10E94381F909307018093060199
:10166000892B79F481E090E001C0880FCA95EAF7F0
:1016700064E670E080950E94381F90930701809384
:101680000601CF910C948B1F8A30B9F040F488305A
:1016900071F0893079F0209A2898CF9108958C3094
:1016A00091F070F08D30B9F73E9A4698F6CF219AB6
:1016B0002998F3CF229A2A98F0CF239A2B98EDCF2E
:1016C000529A5A98EACF539A5B98E7CF80E290E01B
:1016D00090930701809306018091120281110EC040
:1016E0000E94D61E81E0809312022FEF83ED90E3DB
:1016F000215080409040E1F700C0000064E670E0B7
:1017000080E40E94DC1E9093070180930601892BE0
:1017100009F04EC064E670E080E00E94381F9093AC
:10172000070180930601892B09F042C064E670E04E
:1017300080E00E94381F9093070180930601892B57
:10174000B9F564E670E08FE30E94381F90930701BB
:1017500080930601892B61F50E948B1F64E670E07F
:1017600080E40E94DC1E9093070180930601892B80
:10177000F9F464E670E08CE00E94381F9093070152
:1017800080930601892BA1F464E670E080E00E945A
:10179000381F9093070180930601892B49F464E672
:1017A00070E08FE30E94381F909307018093060139
:1017B0000E948B1F809106010895CF93873008F017
:1017C00040C08091060190910701C0E0892B71F41F
:1017D00064E670E080E40E94DC1E90930701809331
:1017E0000601892B31F0C0E00E948B1F8C2FCF9116
:1017F000089564E670E083E10E94381F909307012A
:1018000080930601892B79F764E670E081E40E94F9
:10181000DC1E9093070180930601892B21F784E653
:1018200090E00E94671F97FF05C090930701809387
:101830000601D9CFC82FC09510920701109206015A
:10184000D3CFCFB18FB1869586958C73C3708C2B17
:10185000C82FC095CBCF78941F921FB61F9211242A
:101860008F939F93AF93BF938091A9029091AA0207
:10187000A091AB02B091AC020196A11DB11D809365
:10188000A9029093AA02A093AB02B093AC02BF91BD
:10189000AF919F918F911F901FBE1F9018952FB7EA
:1018A000F8948091A9029091AA02A091AB02B09104
:1018B000AC022FBF0895E091C802F091C9023097A1
:1018C00049F082E08093E0020480F581E02D80EE13
:1018D00092E009950E944F0C9093DC028093DB020A
:1018E00008951092A2021092A1020E94600586E063
:1018F000E0EEF2E0DF011D928A95E9F71092DD0239
:101900001092AD020E945B0C90E080E00E944606BF
:1019100090E080E00C9430060E94D30860939C0213
:1019200070939D0280939E0290939F020C94710C81
:101930000F931F9341E050E060E070E004C0440F5B
:10194000551F661F771F8A95D2F7CB01BA016095A4
:1019500070958095909500919C0210919D02209128
:101960009E0230919F0260237123822393231F9153
:101970000F910C948C0C9091A002809589238093F8
:10198000A002282F277071F4282F082E000C330B8B
:101990009217130639F08595859585950E94980CC8
:1019A0001092A00208950F931F9341E050E060E071
:1019B00070E004C0440F551F661F771F8A95D2F749
:1019C00080919C0290919D02A0919E02B0919F02F5
:1019D0008A019B01082B192B2A2B3B2BC901B8012B
:1019E0001F910F910C948C0C6093A5027093A6022A
:1019F0008093A7029093A8020C94710C1092A302FA
:101A000080911201EEEEF1E0882359F08091C60238
:101A100087FF07C08EE1DF011D928A95E9F70C94DC
:101A2000710C86E0F8CF1F93CF93DF93CDB7DEB76D
:101A3000AA970FB6F894DEBF0FBECDBF8DE193E03D
:101A40002091F100FC012193CF01F3E085329F0743
:101A5000B9F780911E03833009F46FC0B8F4813068
:101A600009F446C0823009F4B0C08091E80083FFD9
:101A700087C280911D0390911E039A3008F080C2A6
:101A8000E92FF0E0E95BFE4D0C94B71F8A3009F4B2
:101A90008BC08B3009F46EC0893039F780911D03FB
:101AA000813219F780912103909122030297E8F681
:101AB0008091E800877F8093E8008091E80082FFB2
:101AC00037C09091F3008091F200029729F4809141
:101AD000F1008B7F813021F48091F1008093F80236
:101AE0008091E8008B778093E8000E94A602BDCF2A
:101AF00080911D03813A09F0B8CF8091E800877F7B
:101B00008093E8008091210390912203892B61F456
:101B100060E289EF92E070E00E9458038091E80053
:101B20008B778093E800A1CF60E090E080E0F3CF76
:101B300080911B038111C1CF98CF80911D03813A01
:101B400009F093CF8091210390912203892B09F012
:101B50008CCF8091E800877F8093E8008091E80037
:101B600080FFFCCF809112018093F1008091E8000A
:101B70008E77B9CF80911D03813209F076CF8091A5
:101B8000210390912203892B09F06FCF8091E80007
:101B9000877F8093E8000E94A60280911F038093B4
:101BA00012010E94FE0C61CF80911D03813209F069
:101BB0005CCF8091E800877F8093E8000E94A602B6
:101BC000809120038093F70250CF80911D03813ACA
:101BD00009F04BCF8091E800877F8093E8008091E7
:101BE000E80080FFFCCF8091F702BECF803899F0EB
:101BF000823809F0C5C1809121038F70873008F0C9
:101C0000BFC18093E9008091EB0085FB882780F9B4
:101C10001092E90006C08091190390911A03911166
:101C200082609091E800977F9093E8008093F100A4
:101C30001092F1008091E8008E779EC1882309F40C
:101C40008CC1823009F09CC180911F0381118FC12A
:101C5000809121038F702FEF280F263008F090C15C
:101C60008093E9002091EB0020FF81C1933031F493
:101C70008091EB0080628093EB0079C19091EB0042
:101C800090619093EB0021E030E001C0220F8A9533
:101C9000EAF72093EA001092EA008091EB00886056
:101CA000EACF81116DC110911F031F778091E3006E
:101CB0008078812B8093E3008091E800877F809378
:101CC000E8000E94A6028091E80080FFFCCF80918E
:101CD000E30080688093E30082E0111183E0809349
:101CE0001B034EC18058823008F04AC180911F0307
:101CF000909120038C3D23E09207A1F583E08A8335
:101D00008AE289834FB7F894DE01139620E03EE023
:101D100051E2E32FF0E050935700E49120FF03C01D
:101D2000E295EF703F5FEF708E2F90E0EA30C0F0E9
:101D3000C7968D939D932F5F243159F74FBF8091A4
:101D4000E800877F8093E8006AE270E0CE010196A8
:101D50000E9458038091E8008B778093E80010C1BF
:101D6000C096E7CF4091210350912203292F3327BA
:101D70002330310509F445C078F52130310509F4E7
:101D80007BC08BE390E0E0EAF3E02230310509F01C
:101D9000F7C02091E800277F2093E80020912303DB
:101DA000309124038217930708F49C0140E0211529
:101DB000310509F070C041116EC08091E80082FDCC
:101DC000C9CF80911B03882329F2853019F28091B5
:101DD000E80083FFF2CFBECF2132310509F440C0C5
:101DE0002232310509F0CCC04115510509F44EC02D
:101DF0004130510509F0C4C08CEB90E0E4EAF2E018
:101E0000C8CF992781309105D9F0009771F08230C1
:101E10009105F1F0039709F0B3C0EDEEF3E0E49122
:101E20008E2F90E0EDEEF3E007C0E5E1F4E0E49101
:101E30008E2F90E0E5E1F4E0009709F4A1C0A9CF6E
:101E4000EBE0F4E0E4918E2F90E0EBE0F4E0F4CFEF
:101E5000E3EFF3E0E4918E2F90E0E3EFF3E0ECCFDB
:101E60004115510571F04130510509F089C089E0F3
:101E700090E0EBECF3E08DCF82E190E0EBEDF3E06E
:101E800088CF89E090E0E2EBF3E083CF80E490E05C
:101E9000E0E6F3E07ECF80911B03882309F45ACF5C
:101EA000853009F457CF8091E80083FD53CF8091AE
:101EB000E80082FD82CF8091E80080FF78CF90918A
:101EC000F3008091F2002115310519F08830910559
:101ED00050F041E0089709F040E08091E8008E77EB
:101EE0008093E80064CF44914093F10031962150F3
:101EF00031090196E8CF803809F042C08091E800AE
:101F0000877F8093E80080911C038093F10092CE3C
:101F1000811136C010911F03123090F58091E800B6
:101F2000877F8093E80010931C030E94A602112370
:101F300011F084E005C08091E30087FDFACF81E0D5
:101F400080931B0342E061EC81E00E94C50242E203
:101F500061EC82E00E94C50213C080911F038130B2
:101F600079F481E0933009F080E080931A031092B5
:101F7000E9008091E800877F8093E8000E94A60234
:101F80008091E80083FF0AC08091E800877F8093FA
:101F9000E8008091EB0080628093EB00AA960FB678
:101FA000F894DEBF0FBECDBFDF91CF911F91089592
:101FB0001F920F920FB60F9211242F933F934F93BE
:101FC0005F936F937F938F939F93AF93BF93CF93C1
:101FD000DF93EF93FF93D091E900DF708091EC00E5
:101FE000C82FC17080FDC0E81092E9008091F00018
:101FF000877F8093F00078940E94130D1092E9007F
:102000008091F00088608093F000CD2BCF70C0935A
:10201000E900FF91EF91DF91CF91BF91AF919F9137
:102020008F917F916F915F914F913F912F910F9081
:102030000FBE0F901F9018951F920F920FB60F9220
:1020400011242F933F934F935F936F937F938F93BD
:102050009F93AF93BF93EF93FF938091E10082FF33
:1020600009C08091E20082FF05C08091E1008B7F72
:102070008093E1008091DA0080FF24C08091D80035
:1020800080FF20C08091DA008E7F8093DA008091FB
:10209000D90080FF9FC080E189BD82E189BD09B47C
:1020A00000FEFDCF81E080931B038091F602811139
:1020B00009C00E942C020E94F7028091E200846015
:1020C0008093E2008091E10080FF17C08091E200E0
:1020D00080FF13C08091E2008E7F8093E2008091A8
:1020E000E20080618093E2008091D800806280935A
:1020F000D80019BC85E080931B038091E10084FF28
:102100002DC08091E20084FF29C080E189BD82E179
:1021100089BD89B5982F917080FFFBCF8091D80041
:102120008F7D8093D8008091E1008F7E8093E100C5
:102130008091E2008F7E8093E2008091E2008160D6
:102140008093E20080911C03882309F449C084E055
:1021500080931B030E94FE0C0E945C068091E100AC
:1021600083FF27C08091E20083FF23C08091E100BC
:10217000877F8093E10082E080931B0310921C0311
:102180008091E1008E7F8093E1008091E2008E7F5C
:102190008093E2008091E20080618093E20042E05F
:1021A00060E080E00E94C5028091F000886080932A
:1021B000F000FF91EF91BF91AF919F918F917F912F
:1021C0006F915F914F913F912F910F900FBE0F90A4
:1021D0001F90189519BC10921B031092F60272CF33
:1021E0008091E30087FD93E090931B03B3CF882396
:1021F000B1F19CEF980F913A38F4682F8CEE91E092
:102200000E94FB040C94600590E2980F983088F4CB
:10221000877021E030E0A90102C0440F551F8A9564
:10222000E2F7CA0180959091A30289238093A302CB
:10223000E9CF9BE5980F933020F490E080E00C9478
:10224000460698E5980F973120F490E080E00C94D2
:102250003006803F20F00E94C1030C945B0C08956F
:10226000CF93C82F882309F46EC08CEF8C0F813A6E
:10227000B8F580911201882311F18091C60287FF81
:102280001EC0EC2FE695E695E695F0E0E451FE4F92
:10229000828190E04C2F477021E030E002C0220F95
:1022A000331F4A95E2F782239323892B89F06C2F01
:1022B0008CEE91E00E94FB040E94600509C0EEEEE6
:1022C000F1E08191C81799F381E0E43FF807C9F77D
:1022D0006C2F8CEE91E00E942505CF910C94600547
:1022E00080E28C0F883068F4C77021E030E001C0D4
:1022F000220FCA95EAF78091A302822B8093A30252
:10230000ECCFEBE5EC0FE33040F4F0E0E554FE4FAA
:10231000808190E0CF910C944606E8E5EC0FE73120
:1023200050F4F0E0EE0FFF1FE254FE4F80819181E8
:10233000CF910C943006C03F30F08C2F0E94840463
:10234000CF910C945B0CCF910895CF93C82F0E942E
:102350003011C93349F42FEF87EE93E021508040CC
:102360009040E1F700C000008C2FCF910C94F71043
:102370000F931F93CF93DF93C62FD42F022FFC010F
:1023800082818823A1F0609328020E944F0C9093D1
:10239000140280931302C77081E001C0880FCA95B0
:1023A000EAF7DF91CF911F910F910C9426061091BF
:1023B0002802161335C080911302909114020E94D6
:1023C000EC04883C910560F5C0E2CD0F1D17B9F013
:1023D00080E2810F883040F4177081E001C0880FDF
:1023E0001A95EAF70E941B06C83048F481E09D2F39
:1023F000977001C0880F9A95EAF70E942606802FF1
:102400000E94A511C83098F4D77081E001C0880FF0
:10241000DA95EAF7DF91CF911F910F910C941B068B
:10242000C77081E001C0880FCA95EAF7F3CFDF914A
:10243000CF911F910F9108954F925F926F927F926B
:102440008F929F92AF92BF92CF92DF92EF92FF92C4
:102450000F931F93CF93DF9300D000D00F92CDB78F
:10246000DEB76C01FC0183819481892B39F01081E6
:10247000F180812F8F218F3F09F004C60F900F90BC
:102480000F900F900F90DF91CF911F910F91FF90C0
:10249000EF90DF90CF90BF90AF909F908F907F9004
:1024A0006F905F904F9008950E944E08082F682FFC
:1024B00089819A810E94CE05E12FF0E026E0F29E0C
:1024C000E00DF11D112434E5039FE00DF11D1124F1
:1024D000EE0FFF1FE455FF4F0591149109308DE574
:1024E0001807F1F5F6018281882309F44DC0809127
:1024F000B40291E0980F9770887F953008F4892B8B
:102500008093B4028091B4028770FFEF8F9FC00167
:10251000112495958795959587959927909389008E
:102520008093880090938B0080938A0090938D0015
:1025300080938C004091B4025091B5026091B60234
:102540007091B7028FE090E00E94E31F60919C02BF
:1025500070919D0280919E0290919F020E94D308EB
:10256000F6018281882309F45AC09801215E3C4516
:102570002530310508F053C06FE1600F6093B00261
:102580008CE090E00E94D11FF6018281882309F43B
:102590008AC5109228020230FCE51F0708F491C595
:1025A00006312CE5120738F098012A5F3C452730A8
:1025B000310508F086C50E945C099093C70280939C
:1025C000C6020F303CE5130709F4B8C108F032C168
:1025D00008309CE5190709F49BC108F007C10430D5
:1025E000FCE51F0709F488C108F0EDC002303CE5A6
:1025F000130709F479C103301C4509F479C16091CE
:10260000C6021091C70284E090E00E94D11F612FA2
:1026100081E290E00E94D11F0E94FE0C91C017FF42
:1026200074C0882309F4B0CF8091A302809327025D
:102630001092A3028091B002813009F441C0882336
:10264000D9F1823009F449C0843009F44DC08FE3D8
:102650009CE90197F1F700C000005801E894B7F831
:10266000ECE0EE2EF12C95010E2C02C0369527954C
:102670000A94E2F72F7087E290E029F0822F90E031
:102680002A30B8F54D960E94A51194E0E91AF10898
:10269000ECEFEE16EFEFFE0631F78091B0028130DD
:1026A00071F1882341F1823031F1843061F1809100
:1026B00027028093A30268CF82EE0E943011C7CF19
:1026C00083E00E94110688E10E94301188E10E9497
:1026D000F71083E00E940606BACF82EE0E94301106
:1026E00087E50E94A511B3CF86EE0E94A51188E16F
:1026F000F8CF0697C8CF82EE0E94F710D8CF8CE2B1
:102700000E94A511D4CF88E2FBCF033FFCE51F0751
:1027100009F44AC0B8F5083D3CE5130709F440C088
:10272000093D8CE5180709F44BC0073D9CE51907E6
:1027300009F02ACF26E241EE61EEC6010E94B811EF
:102740008091A002877009F499CEF60182818823D6
:1027500009F494CE82E00F900F900F900F900F909D
:10276000DF91CF911F910F91FF90EF90DF90CF906D
:10277000BF90AF909F908F907F906F905F904F90A1
:102780000C94BB0C053FECE51E07B1F088F0063F4A
:102790002CE5120709F0F8CE27E245EE66EECDCF24
:1027A00027E245EE65EEC9CF26E241EE60EEC5CFE9
:1027B00027E245EE64EEC1CF26E241EE62EEBDCFE8
:1027C00028E241E0EFCF8091C602806106309CE5AF
:1027D000190709F447C08091C602886007301C457C
:1027E00008F440C08091C60280623CC00B30FCE51A
:1027F0001F0709F49BC068F409303CE5130709F48E
:102800008BC00A301C4509F0FACE8091C6028C605C
:1028100029C08091C6028B7F0D309CE5190711F10C
:102820008091C6028D7F0E301C45E0F08091C6027B
:10283000877F18C00A3FFCE51F0709F461C060F5F7
:1028400002313CE5130709F481C078F400319CE5BE
:10285000190709F477C08091C6028F7B01311C45AE
:1028600009F0CDCE8093C602CACE0431FCE51F0725
:1028700009F47AC008F470C005311C4509F0BFCED8
:102880008091C60282FB992790F921E0922790FB64
:1028900082F990FB83F9E6CF0D3F8CE5180709F428
:1028A00049C070F40B3FECE51E0771F18091C7023F
:1028B0008E7F0C3F1C4509F0A2CE8093C7029FCEAD
:1028C0000F3F2CE5120709F44BC060F101151D45BF
:1028D00009F095CE8091C702982F909591708E7FC8
:1028E000892B90FB81F9E9CF8091C6028160BACF34
:1028F0008091C6028260B6CF8091C6028460B2CF5A
:102900008091C7028160D9CF8091C7028260D5CF04
:102910008091C6028064A6CF0E94FE0C8091C60200
:102920008068A0CF8091C7028360C7CF8091C60224
:102930008E7F98CF8091C7028D7FBFCF8091C602D6
:102940008F7E90CF8091C6028F7D8CCF0E94FE0C2F
:102950008091C6028F7786CF8091C602837F82CF17
:102960008091C7028C7FA9CF0E94FE0C9091C60275
:10297000892F97FB87F9805875CF882349F0011577
:102980009CE5190709F44EC00E3D1C4509F487C0AB
:10299000F60100811181882309F484C0C8010E94D6
:1029A0004E08F82E682FC8010E94CE05B8018F2D61
:1029B0000E94AB06082FF92EB82EF601E580E294AE
:1029C0007FE0E722128111111092A2028091A002F1
:1029D0008770C1F01123B1F08F2D807F803449F0D2
:1029E00090E2900F983070F0803619F4F6EFBF1631
:1029F00049F082E00E94BB0C8091A0028770AA245B
:102A0000A3948111A12C9F2C92945FE095226BE0FE
:102A1000462E491408F481C0E92DF0E0EF5AFE4D2E
:102A20000C94B71F0E94FE0CFFEF24E33CE0F15032
:102A300020403040E1F700C00000F89481E080932E
:102A4000E00080E28093D8001092C9008FE19EE4FC
:102A50000197F1F700C000001DBA109268001CBC7D
:102A600010BE1FBA10927A0010926E0010926F0082
:102A700010927100109272001092C9001092BC0066
:102A800014B817B81AB81DB810BA1092BC0015B80F
:102A900018B81BB81EB811BA0C94003F51CE0E9452
:102AA0009E0A4ECEC8010E94A505F82E7FCF2F2D7D
:102AB0002F70E22E8F2D807F19F0E29440EFE422F8
:102AC0001123C9F0EE2069F080E2800F883010F009
:102AD000B1100BC08091A302E82AE092A3020E94E9
:102AE0006005802F0E94301118C08091A202E82A50
:102AF000E092A202F4CF802F0E94F710EE2069F03E
:102B0000E094005E083010F0B11057C08091A3022D
:102B1000E822E092A3020E946005292D2850330B81
:102B20002430310510F40E945C06112379F08F2DBA
:102B3000807F803619F436EFB31641F080912A0277
:102B4000823009F097C283E080932A02AA20A9F07C
:102B50008091A00280FD11C0F601128285958595B5
:102B600085950E94D30CC6010E941C128091A00280
:102B70008595859585950E94980C85E0F601DE0186
:102B8000119601900D928A95E1F789819A810E94B0
:102B9000A5059A81E981F0E026E0929FE00DF11D04
:102BA000112434E5839FE00DF11D1124EE0FFF1F6A
:102BB000E455FF4F8591949161CC8091A202E82267
:102BC000E092A202A8CF3F2D3F70832E8F2D807FF1
:102BD000803219F0829430EF8322BB2041F081E0F3
:102BE000B81631F1112381F1EE2049F17ACF11238A
:102BF00091F09091A402882D892BE11003C00E94CE
:102C000026068BCFE1E0EE12FACF891709F485CFC3
:102C10008093A40282CFE11006C00E945A05882D3D
:102C20000E941B067ACFF1E0EF1609F476CFF5CFBC
:102C3000112339F0442443944E1408F46ECF882DA8
:102C4000DECFE1106ACFEBCFEE2049F329E3522E1D
:102C5000B51009C02FEF37EE83E02150304080409F
:102C6000E1F700C00000802F0E94F71056CF8F2D93
:102C700086958695837069F0813009F04ECF802F5C
:102C80009F2D9370111102C090E080E00E943006E9
:102C900044CF802F9F2D9370111102C090E080E0EF
:102CA0000E9446063ACF802F112329F00E94840407
:102CB0000E945B0C32CF0E94C103FACF8F2D83702C
:102CC00009F067C0111129CF202F22952695277072
:102CD000220F220F402F4F7050E070E060E0022E74
:102CE00004C0440F551F661F771F0A94D2F780E077
:102CF00090E0DC0104FF0FC08FE090E0A0E0B0E0C6
:102D000004C0880F991FAA1FBB1F2A95D2F7809570
:102D10009095A095B0952F2D26952695237022305D
:102D200029F1D8F44090A5025090A6026090A70225
:102D30007090A802213069F0842B952BA62BB72B1D
:102D4000BC01CD0164217521862197210E94F40CDC
:102D5000E4CE44295529662977292A013B01482ACE
:102D6000592A6A2A7B2AC301B201F0CF842B952B02
:102D7000A62BB72B4090A5025090A6026090A70208
:102D80007090A802BC01CD01642575258625972584
:102D9000DDCF8695112311F08F2D8170882309F4E2
:102DA000BCCE202F229526952770220F220F402F70
:102DB0004F7050E070E060E0022E04C0440F551FD9
:102DC000661F771F0A94D2F780E090E0DC0104FFD1
:102DD0000FC08FE090E0A0E0B0E004C0880F991F22
:102DE000AA1FBB1F2A95D2F780959095A095B09504
:102DF0002F2D269526952370223029F1D8F4409066
:102E00009C0250909D0260909E0270909F02213023
:102E100069F0842B952BA62BB72BBC01CD01642127
:102E20007521862197210E948C0C77CE4429552943
:102E3000662977292A013B01482A592A6A2A7B2ACE
:102E4000C301B201F0CF842B952BA62BB72B40905A
:102E50009C0250909D0260909E0270909F02BC0167
:102E6000CD016425752586259725DDCF2F2D2F7063
:102E7000E22E112329F0822F0E94D30C802FBFCE87
:102E8000802F0E941B068E2D0E94980C46CE802F0C
:102E900032EFB31609F452C03B1578F090EFB91633
:102EA00029F1E1EFBE1609F441C0112309F46AC00B
:102EB000E11017CE8F2D8F713EC0F3EFBF1609F4CE
:102EC00042C094EF492EB410F0CF112309F44FC043
:102ED0000F2D0F71802F0E94D30C28E0029FC0019C
:102EE000112483608093A002802F25C01123C1F09C
:102EF000E11013CE2F2D2F7161E070E080E090E0A3
:102F000004C0660F771F881F991F2A95D2F740903B
:102F10009C0250909D0260909E0270909F02A1CFF3
:102F2000552453945E1408F4F8CDE4CF8F2D8F719F
:102F3000112309F4A9CF0E94D30CEFCD8F2D8F71EF
:102F40001123C9F3A1CF60E070E0CB01112309F494
:102F50006ACF2F2D2F7161E070E080E090E004C017
:102F6000660F771F881F991F2A95D2F75CCF81E0E3
:102F70000E94BB0C31E03E1508F0CFCD82E00E94EC
:102F8000BB0CCBCDEE2059F0893309F06CCE8FEF1E
:102F900097EEE3E081509040E040E1F762CE8F2D64
:102FA0008F7172CFE0E1E00FE73008F03EC0F0E053
:102FB000E35AFE4D0C94B71F112309F4AECD809156
:102FC0002C0291E0892780932C02A7CD10932C022C
:102FD000A4CD81E08127F7CF11119FCD81E0F3CF00
:102FE00011119BCD10922C0298CD112321F082E07B
:102FF00080932A02F3CF80912A02823021F481E06B
:1030000080932A028ACD833009F087CD10922A025C
:10301000E9CF112339F080912B02882381F210929D
:103020002B027BCDEE2059F278CD80912B02EE2041
:10303000A9F0882341F080912C0291E089278093A8
:103040002C0210922B02802F11114CCD0E94F710F0
:1030500086E0F60111928A95E9F75FCD882309F49D
:103060005CCD11115ACD80912C0291E0892780937B
:103070002C02D5CF813009F069CD10922A0210922E
:103080002C0264CD85E0DE01119601900D928A95A7
:10309000E1F7F601228189819A81211105CA0E94F6
:1030A000A505082F09CA06311C4509F071CC80918D
:1030B000290269E2811165E38CEE91E00E94FB0434
:1030C00014C006312CE5120709F057CC8091A302F9
:1030D0008A7A91E009F490E09093290269E28111E3
:1030E00065E38CEE91E00E9425050E94600528CBE7
:1030F0001F93CF93DF9380913202807FA9F4809158
:103100002F02882389F080916402D091330260916C
:103110002D0270912E02A0913002B0913102C62F83
:10312000C72316E0D81304C0DF91CF911F910895F3
:1031300090E0109711F0CF3F19F401968770F2CF0D
:10314000189F9001199F300D1124F901EC5CFD4F7F
:1031500041814713F2CF40814613EFCF42814111A5
:10316000ECCF438154814A1B5B0B483C510528F747
:10317000809132028F70806180933202F901E75CA6
:10318000FD4F80818F70806180838DE292E00E948C
:103190001C12DF91CF911F910C94FC05AF92BF924E
:1031A000CF92DF92EF92FF920F931F93CF93DF9313
:1031B000CDB7DEB761970FB6F894DEBF0FBECDBFB7
:1031C0008C0185E0F801DE011D9601900D928A9533
:1031D000E1F7F80180819181E2802DE2A22E22E0C8
:1031E000B22E60913002709131026115710509F4BF
:1031F0003EC130912D0240912E02232F24232F3FD8
:1032000009F435C1C380D480F0902F02F601E61B8B
:10321000F70BFF2009F4FBC020913202522F507FA0
:10322000E83CF10508F0BBC0511178C0FE2C4913F1
:1032300021C038131FC0E1101DC02F7020612093E2
:103240003202C5010E941C1280913202F80185836E
:103250008F2D61960FB6F894DEBF0FBECDBFDF9104
:10326000CF911F910F91FF90EF90DF90CF90BF9083
:10327000AF900895CD2829F0282F29232F3F09F05A
:1032800022C120E0F22FF170DF2E20FF3DC02091FF
:1032900064024091330256E0241315C08D879E8747
:1032A0008D859E850E949008292F22952F702230AF
:1032B000F8F0243020F59F70F9F0F8019581907FA7
:1032C000D9F4D12C1FC030E0529FF001539FF00D74
:1032D0001124EC5CFD4F6181961306C0608186135A
:1032E00003C06281E61210C02F5F3F4F2770D4CF1A
:1032F0009F7011F0882329F3805E883010F3C80195
:103300000E941C12FD2CA4CFEE2009F4A1CF8091C5
:103310003202816080933202F12C9ACF491312C09D
:10332000381310C0E1100EC0F8012583C8010E94B7
:103330001C1286E0F801ADE2B2E001900D928A9590
:10334000E1F786CF8D879E878D859E850E949A089E
:10335000882309F1EE20F9F080913202803270F07A
:1033600020912D0230912E0238872F831986DB861B
:10337000CA868C87CE0107960E941C1286E0F8014F
:10338000ADE2B2E001900D928A95E1F70E947818C3
:10339000FF24F3945DCFC8010E941C12F9CF511194
:1033A0000AC08DE292E00E941C1286E0F5011192A3
:1033B0008A95E9F7B1CF49130FC038130DC0E1105A
:1033C0000BC0F8012583C8010E941C1286E0F5019C
:1033D00011928A95E9F73CCF8D879E878D859E85D2
:1033E0000E949A088823B9F2EE20A9F28091320255
:1033F000803220F220912D0230912E023A832983CF
:103400001B82DD82CC828E83CE010196B5CFE83C53
:10341000F105E0F6FE2CEE2009F4BDCF491316C0ED
:10342000381314C08091320280FD83CF982F907F93
:1034300009F47FCFF8018583903F09F477CF982F67
:10344000907F905F8F70892B858370CF8D879E874B
:103450008D859E850E949A08811190CF80913202BD
:10346000816080933202C8010E941C12F1CEEE20CE
:1034700009F491CF8D879E878D859E850E949A083D
:10348000F82E882309F487CF86E0F801ADE2B2E098
:1034900001900D928A95E1F780912D0290912E0274
:1034A0000E94900892959F70963051F4863F41F0AB
:1034B00080912C0291E0892780932C0290932B021B
:1034C0000E947818C5CE21E02E25DCCE1F93CF9325
:1034D000DF93CDB7DEB767970FB6F894DEBF0FBEA8
:1034E000CDBF6D8B7E8B8F8B8E899F89892BE1F071
:1034F000852F84238F3F09F098C05FEF4FEF14C0F2
:1035000030912C02332309F44EC0E42FF0E036E072
:10351000539FE00DF11D1124EE0FFF1FED5EFE4FD6
:1035200040815181822B8C931A8A198A4B8B5C8B38
:1035300085E0FE017396DE011D9601900D928A953D
:10354000E1F786E0FE013D96DE01179601900D92AF
:103550008A95E1F7CE0107960E94CE18811112C01C
:1035600086E0FE013796DE01119601900D928A9554
:10357000E1F78A859B85892B29F08F81988589239E
:103580008F3FC9F516E08091640290913302891350
:1035900020C067960FB6F894DEBF0FBECDBFDF9197
:1035A000CF911F91089580958223BDCF96E0929F81
:1035B000D001939FB00D1124AC5CBD4FFE0131963C
:1035C00001900D929A95E1F7809333020E94FC05D9
:1035D000D9CF819FC00111248C5C9D4F0E94CE18D1
:1035E0008823B9F28091640290E001968770992750
:1035F00080936402C8CF2091330230E0C901019664
:1036000087709927409164024817190679F60E943D
:10361000FE0C109233021092640286E0EDE2F2E0BA
:10362000DF011D928A95E9F7ADCF81E090E0042E8D
:1036300001C0880F0A94EAF7A52FB0E0A75EBD4F3E
:103640002C913D8931115CCF322F38235BCF8F9283
:103650009F92BF92CF92DF92EF92FF920F931F93B0
:10366000CF93DF938091060190910701892B91F010
:10367000809111028F5F8093110281110BC00E9413
:10368000660B90E09093070180930601892B11F45B
:103690000E94240A28EB822E22E0922E740100E080
:1036A00010E097E0C92EC00E802F0E94120B8C2DC7
:1036B0000E94120B802F0E94DD0BE70199917E0181
:1036C000D12C891729F0FE0131978083DD24D39412
:1036D0008C2D0E94DD0BF7019681891709F47BC0C0
:1036E000868381E08D29182B0E9446090F5F0730E1
:1036F000C1F60E944F0C60910D0270910E029093E2
:103700000E0280930D0220910C0230E0261B370B35
:10371000820F931F6BEF70E00E948F1FE82E392FEE
:10372000082F80930C02F0901002FF2009F45FC074
:1037300010921002E091AE02F091AF02AF01425F31
:103740005F4F20E08BEFB82E6BEF70E0A191AB3FA5
:1037500099F0CA2ED12C8E2D932F0A17F0F18C19C7
:103760009D09092E000CAA0BBB0B4E97A105B105B4
:10377000D0F1DF011197BC924E175F0739F7209304
:103780001002111102C0211134C010920F02A09139
:10379000AE02B091AF0290911002EBECF2E049ED75
:1037A00052E080E03191E40129914E01321751F04D
:1037B0003C913B3FD1F40C93BF0161507109EB0187
:1037C000288391E011964E175F0761F790931002DE
:1037D00080930F0212C080E085CFDB01AC19BD09D8
:1037E0008A0F9B1FBECF2F2DC7CF81E0EBCF1111CA
:1037F000CCCF80910F028111C8CF812FDF91CF9163
:103800001F910F91FF90EF90DF90CF90BF909F900E
:103810008F900895CDB7DEB760970FB6F894DEBFEE
:103820000FBECDBF84B7877F84BF0FB6F894A8952D
:1038300080916000886180936000109260000FBEEC
:1038400080E890E00FB6F894809361009093610057
:103850000FBE85B7806885BF85B7806885BF0E9429
:103860002C020E94F7028091E20084608093E200C3
:10387000789480911B038823A1F01091E9001F70B8
:103880009091EC00892F817090FD80E8182B1092A8
:10389000E9008091E80083FD0E94130D1F701093D2
:1038A000E90082E084BD93E095BD9AEF97BD8093D7
:1038B0006E000E94660B90E09093070180930601D2
:1038C0000E9446090E945509A8EBB2E0EBECF2E039
:1038D00011921D9222E0E93DF207D1F78EE090E0CF
:1038E0000E9405208093AE029093AF02FC010E96D9
:1038F0002BEF21938E179F07E1F790E080E00E9465
:10390000CB1F8F3E9E4F11F00E949E0A8CE090E0EC
:103910000E94BD1F90E0B0E0A0E08093B0029093C1
:10392000B102A093B202B093B30289EA80938000FF
:1039300089E08093810024982C983F988AB18F7CED
:103940008AB96E98479A8BB180638BB9769A8FE06B
:1039500090E00E94C51F6093B4027093B5028093FB
:10396000B6029093B70267708FEF689FB001112481
:10397000759567957595679577277093890060931E
:10398000880070938B0060938A0070938D00609321
:103990008C000E94240A90E080E00E94CB1F8F3EA2
:1039A0009E4F11F00E949E0A82E090E00E94BD1F8F
:1039B0008093E7020E945C099093C7028093C6023D
:1039C00083E090E00E94BD1F682F70E090E080E0EF
:1039D0000E94F40C88E091E09093C9028093C802A1
:1039E000DD24D394CC24CA9480E1B82E92E1A92E90
:1039F00028E1E22EF12C30E4932E80911B038530D8
:103A000009F422C10E94271BE8EEF2E0ABECB2E021
:103A100010E000E0302F8D912191281709F461C149
:103A200090E0882483942827422F482109F454C128
:103A30009F833887882191E009F490E099870E945C
:103A40004F0C8160782F9B878A874F8158856985C5
:103A50008B850E94661AF801E851FD4F8081882607
:103A6000808286E0E0EEF2E0DE01119601900D9298
:103A70008A95E1F78091E2029091E302892B09F4A3
:103A800068C08091DE029091DF020E94EC049C01EC
:103A90009091DD02992309F45EC12531310508F4C6
:103AA00058C09F3F19F09F5F9093DD021092E4028F
:103AB0001092E5028091E202181624F40E9460043C
:103AC0008093E2028091E20287FF05C00E946004B9
:103AD00081958093E2028091E302181624F40E94FB
:103AE00060048093E3028091E30287FF05C00E9497
:103AF000600481958093E3023091E2023323B1F0B8
:103B00002091E302222391F045EB3403C0011124FC
:103B1000992309F4FCC09093E20245EB2403900141
:103B20001124332309F4F6C03093E3020E945B0CA6
:103B30008091DB029091DC029093DF028093DE02A1
:103B400086E0FE013196A0EEB2E001900D928A95DA
:103B5000E1F78091E4029091E502892B09F468C0B5
:103B60008091D9029091DA020E94EC049C0190911C
:103B7000DD02992309F4EBC02531310508F458C062
:103B80009F3F19F09F5F9093DD021092E202109226
:103B9000E3028091E402181624F40E94400480930A
:103BA000E4028091E40287FF05C00E9440048195F1
:103BB0008093E4028091E502181624F40E944004E8
:103BC0008093E5028091E50287FF05C00E944004D2
:103BD00081958093E5023091E4023323B1F0209186
:103BE000E502222391F045EB3403C001112499230F
:103BF00009F493C09093E40245EB2403900111244F
:103C0000332309F48DC03093E5020E945B0C809150
:103C1000DB029091DC029093DA028093D90286E075
:103C2000FE013196A0EEB2E001900D928A95E1F787
:103C30000E945C069091E602891709F4DECE0E948C
:103C40005C068093E602D9CE80911B03843009F193
:103C50001092CA020FB6F894A895E09260000FBEC9
:103C60009092600083B7817F846083BF83B7816057
:103C700083BF7894889583B78E7F83BF0FB6F894FF
:103C8000A895809160008861809360001092600028
:103C90000FBE80911A03882309F4AFCE0E94660BF1
:103CA00090E090930701809306010E9446090E94CC
:103CB0005509EBECF2E0119242E0E93DF407D9F747
:103CC0000E94271BEBECF2E0819181112CC082E075
:103CD000E93DF807C9F791CE9F5F880C963009F04F
:103CE000A3CE0F5F1F4F0E30110509F093CECC8687
:103CF000CD861E860E944F0C8160782F988B8F870F
:103D00004C855D856E8588890E94661AAACED09200
:103D1000E20203CFD092E30209CFD092E4026CCF4B
:103D2000D092E50272CFB9BCA9BC09B400FEFDCFA8
:103D30008091D8008F7D8093D8008091E0008260D0
:103D40008093E0008091E00081FDFCCF56CE232BD4
:103D500009F018CF6DCF232B09F0A5CEFACE1F9214
:103D60001FB61F9211248F939F93AF93BF9380919F
:103D7000CA02811113C08091A9029091AA02A09158
:103D8000AB02B091AC024196A11DB11D8093A90276
:103D90009093AA02A093AB02B093AC02BF91AF91F3
:103DA0009F918F911F901FBE1F9018951092B90080
:103DB0008CE08093B8000895EF92FF920F931F93C9
:103DC000CF93DF93182FEB011092BC0084EA80930D
:103DD000BC000E944F0C7C018091BC0087FF27C073
:103DE0008091B900887F883029F08091B900887F60
:103DF0008031D9F51093BB0084E88093BC000E9409
:103E00004F0C8C018091BC0087FF24C02091B90029
:103E1000287F90E080E02831B1F081E090E020340C
:103E200011F490E080E09195819591090CC0CF3F0D
:103E3000DC0791F20E944F0C8E199F098C179D0789
:103E400058F28EEF9FEFDF91CF911F910F91FF906E
:103E5000EF900895CF3FDC07A9F20E944F0C801B22
:103E6000910B8C179D0770F2ECCF8FEF9FEFEBCF8C
:103E70000F931F93CF93DF93EB018093BB0084E8F4
:103E80008093BC000E944F0C8C018091BC0087FF86
:103E900011C02091B900287F81E090E0283211F410
:103EA00090E080E0919581959109DF91CF911F91EC
:103EB0000F910895CF3FDC0741F30E944F0C801B08
:103EC000910B8C179D0708F38EEF9FEFEECF0F93AA
:103ED0001F93CF93DF93EC0184E88093BC000E9492
:103EE0004F0C8C018091BC0087FF08C08091BB0003
:103EF00090E0DF91CF911F910F910895CF3FDC07A4
:103F000089F30E944F0C801B910B8C179D0750F377
:103F10008EEF9FEFEECF84E98093BC000895AA1B3B
:103F2000BB1B51E107C0AA1FBB1FA617B70710F0A4
:103F3000A61BB70B881F991F5A95A9F780959095D6
:103F4000BC01CD01089597FB072E16F4009407D00D
:103F500077FD09D00E948F1F07FC05D03EF4909595
:103F600081959F4F0895709561957F4F0895EE0F4D
:103F7000FF1F0590F491E02D0994F999FECF92BDB1
:103F800081BDF89A992780B50895A6E1B0E044E094
:103F900050E00C94F71FA8E1B0E042E050E00C9430
:103FA000F71F262FF999FECF92BD81BDF89A019790
:103FB00000B4021639F01FBA20BD0FB6F894FA9A71
:103FC000F99A0FBE08950396272F0E94D21F0E94D0
:103FD000D11F252F0E94D21F242F0C94D21F01968F
:103FE000272F0E94D21F0C94D11FDC01CB01FC01B2
:103FF000F999FECF06C0F2BDE1BDF89A319600B442
:104000000D9241505040B8F708950F931F93CF93EE
:10401000DF938230910510F482E090E0E091270375
:10402000F091280330E020E0B0E0A0E0309799F470
:104030002115310509F447C0281B390B24303105FF
:10404000C0F58A819B816115710571F1FB01938334
:104050008283FE0111C04081518102811381481782
:104060005907F8F04817590799F4109761F012961C
:104070000C93129713961C933296CF01DF91CF9138
:104080001F910F9108950093270310932803F4CFF5
:104090002115310519F04217530718F49A01BD0193
:1040A000EF01DF01F801C2CF90932803809327032B
:1040B000D0CFFE01E20FF31F81939193225031097B
:1040C00039832883DACF2091250330912603232BCF
:1040D00041F4209102013091030130932603209393
:1040E000250320910001309101012115310541F492
:1040F0002DB73EB74091040150910501241B350BAB
:1041000040912503509126034217530708F0B5CF7D
:10411000241B350B2817390708F4AFCFBC016E5F9D
:104120007F4F2617370708F4A8CF640F751F7093C9
:10413000260360932503FA01819391939ECFCF9339
:10414000DF930097E9F0FC01329713821282C0914D
:104150002703D0912803DE0130E020E02097A1F46E
:1041600020813181820F931F2091250330912603F6
:104170002817390709F067C0F0932603E093250359
:10418000DF91CF910895DA01AE17BF0708F040C064
:1041900012964D915C9113979D014115510599F728
:1041A000D9011396FC93EE9312974D915D91A40F54
:1041B000B51FEA17FB0779F4808191810296840F7D
:1041C000951FD90111969C938E93828193811396AA
:1041D0009C938E931297B0E0A0E08A819B81009718
:1041E000B9F5FE0181919191E80FF91F80912503A6
:1041F000909126038E179F0719F6109761F510927C
:10420000280310922703D0932603C0932503B8CF29
:10421000B383A28340815181840F951FA817B907EA
:1042200071F44E5F5F4F8D919C911197480F591F0C
:104230005183408312968D919C91938382832115A3
:10424000310509F0ADCFF0932803E093270398CF11
:10425000DE01EC01C2CF13961C921E921297D3CFAF
:10426000F894FFCFA908A908B208B208B408B208A8
:10427000B208B208A908A908B908B208B208B90872
:104280002D0939093E0937093C0943094109F60D51
:104290001E0EC00F1E0EC00F510E720EC00F7B0FF0
:1042A000880F57155715E315E31537165316D21710
:1042B0008D155E16361747174717DC170918E617CE
:0842C000E917F017EC17F517E0
:1042C8000000290320002000BE03DE09B309AF095E
:1042D8009D0901000D010D020D030D040D050D00D2
:1042E8000C010C020C030C040C050C000B010B0256
:1042F8000B030B040B050B000A010A020A030A044C
:104308000A050A0009010902090309040905090047
:104318000801080208030804080508000701070245
:10432800070307040705070006010602060306043B
:104338000605060005010502050305040505050037
:104348000401040204030404040504000301030235
:10435800030303040305030002010202020302042B
:104368000205020001010102010301040105010027
:104378000001000200030004000500818283E200BE
:10438800E900EA00B500B600B700CD008301CC0013
:104398008A019201940121022302240225022602A5
:0C43A80027022A02B300B4006F0070006E
:00000001FF
